
作者：禅与计算机程序设计艺术                    

# 1.简介
         
1991年，一个名叫比特币(BitCoin)的加密货币被创造出来。它是一个去中心化、分布式的点对点网络系统。因为比特币这个名字太火爆了，所以后来又称之为区块链(Blockchain)。区块链是一个密码学基础设施，它能够提供一种全新的互联网应用模式，利用区块链可以实现任何一种现代数字货币的支付功能，包括虚拟货币、借贷担保品、点卡等。虽然区块链已经成为一种热门话题，但是对于很多普通用户来说，还是比较陌生的。在本文中，我将带领大家进入这个新时代的密码学世界，用通俗易懂的语言和详细的示例，对区块链及其相关知识进行深入浅出的剖析，帮助读者理解并运用区块链技术更好的把握其价值与作用。

         在开始之前，需要提醒读者注意的是：本文不是一本传统意义上的密码学著作，而是侧重于区块链密码学的技术原理和应用实践，因此会更偏向实操而不是理论的深入。本文并不会教授一些较为复杂的公式或理论，相反，它希望通过一些示例和图示加以演示，让读者感受到区块链密码学的魅力所在。同时，文章不仅会涉及一些计算机安全方面的最佳实践，还会着重阐述区块链的经济模型、可伸缩性、隐私保护等重要主题。

        # 2.基本概念
         ## 2.1 分布式账本技术
         分布式账本技术（Distributed Ledger Technology，DLT）是指由一组独立结点（Node）构成的去中心化网络，这些结点通过互相通信、复制、验证数据并达成共识，形成了一套记录事物所有权、状态变更、不可篡改的分布式数据库，通常使用点对点网络结构。DLT技术具有以下几个特点：
          - 数据共享：每个结点都存储整个账本信息。
          - 智能合约：可以定义智能合约来约束交易行为，从而使整个系统的运行更安全、透明。
          - 去中心化特性：无需第三方信任就可以完成交易。
          - 不可追踪性：除非主动获取其他结点的信息，否则无法知道某个结点的身份。
          - 高效率：不需要中心节点参与处理，可以极大地提升性能。

         DLT区别于传统的中心化数据库有如下优势：
          - 防止恶意攻击：由于每个结点存储完整的数据，并且所有结点共享同一份数据，因此可以很容易检测出诈骗、伪造等恶意攻击行为。
          - 隐私保护：无需暴露真实身份，只需要遵守合法的规则即可获得服务。
          - 可扩展性：随着网络规模的扩大，结点数量增多，系统也能有效应对突发状况。
          - 易于学习：系统采用开放的协议标准，容易上手。

         ## 2.2 哈希函数与加密证书体系
         哈希函数（Hash Function）是一种单向加密函数，输入可以是任意长度的数据，输出固定长度的值。哈希函数的主要目的是为了将任意长度的数据压缩到一定的长度，即便原始数据的任意变化，经过哈希函数计算得到的结果也一定是一样的。使用哈希函数的目的之一就是对敏感数据进行加密，将原始数据加密后输出，只能由持有私钥的人才能解密。加密证书体系（Digital Certificate System）是由数字签名技术和公钥基础设施（PKI）发展起来的，其目的是建立一个公钥基础设施，用于管理数字证书，并用于认证实体（如组织、个人）的身份、授权其做出特定行为，以及实现实体间的通信。

         ## 2.3 工作量证明（Proof-of-Work）与挖矿
         工作量证明（Proof-of-Work）是通过一定难度的计算来产生区块链数字签名的一种机制。目前，比特币使用的工作量证明算法为“SHA-256+SHA-256”形式，称为“双SHA”。
         区块链的每一个区块都会包含上一区块的哈希值，通过比较两个区块之间的哈希值，就能判断出谁的链条更长。为了解决“拜占庭将军问题”，出现了“工作量证明”，即矿工要完成某项任务所需的算力越多，获得的奖励就越多。通过不断尝试不同nonce值来找到符合要求的nonce值，生成的区块就拥有了“工作量证明”的特征。

         ## 2.4 Merkle树
         Merkle树是一种数据结构，它可以用来验证二进制文件是否被修改或者损坏。Merkle树的基本思想是构造一颗树，根节点对应文件的摘要信息；如果某个分支的左右孩子为空，则根节点对应该分支的节点值为两个孩子节点的值的哈希值；如果某个分支只有左孩子，则根节点对应该分支的节点值为左孩子节点值的哈希值；如果某个分支只有右孩子，则根节点对应该分支的节点值为右孩子节点值的哈希值；其余情况均为根节点对应该分支的节点值为左右孩子节点值集合的哈希值。这样一来，只要某个分支的左右孩子发生变化，那么改变的分支对应的节点值就会与整棵树的摘要信息不同。
         通过这种方式，就能验证文件的完整性。

        # 3.核心算法原理
        ## 3.1 PoW与挖矿
         “工作量证明”是区块链中用于确立新区块的一种机制。它的基本思路是：矿工首先将待加入的区块头部包含的内容进行hash运算，得到哈希值，作为自己的工作证明。然后，矿工将这个工作证明加入自己的计算过程，并在此过程中不停地进行调整，直到找到满足条件的nonce值。具体的工作证明计算方法为：将待加入的区块头部信息进行sha256哈希运算，之后用0x00填充至少四位，再进行两次sha256运算，最后取中间的十六进制字符作为nonce值。例如：假设矿工将前100个字符设置为abcde，经过两次sha256运算，得到结果为fghijk，中间的四个字符为1234，则nonce值为1234。

         每个矿工都会维护一个数字签名列表，其中记录他计算出的nonce值和对应的区块哈希值。当一个矿工找到了一个nonce值并成功生成区块时，他就会将自己计算出来的nonce值、区块哈希值和前一次的数字签名添加到数字签名列表中，并广播给其他矿工，并等待确认。当网络中的大多数矿工都接受到了新的区块并对其进行验证之后，该区块将被加入到主链中。

        ## 3.2 PoS与委托制
         在PoS机制中，验证者不是直接参与生产区块，而是按照一定的规则进行选择。验证者首先在矿工发布新区块后的一个随机期限内提交区块头，然后根据其得票数来决定是否成为下一个区块的候选人。候选人有权利生成新区块，但不能保证一定会获得该区块的奖励。区块的生成规则也会受到一定的限制，例如，可以使用计数器机制，对验证者每产生一次有效的区块，其获得的权利会增加一个单位。通过这种机制，PoS可以在降低资源消耗的同时保留一定的算力份额。

        ## 3.3 零知识证明（Zero-Knowledge Proofs）
         零知识证明（Zero-Knowledge Proofs，ZKP）是一种针对信息证明（Proof of Knowledge）的形式化方法，也是一种安全工具。它可以在不透露任何信息的情况下证明一个命题成立或失败。该方法由奥尔德罗普·阿里（<NAME>）在20世纪80年代提出，其基本思路是利用秘密参数和一定的计算规则。具体的方法为：
          - 设置两个相互独立的系统，分别为公开系统和隐秘系统。
          - 公开系统向隐秘系统提供一个公共参数，而且参数的任何一方都不能获知关于另一方的任何信息。
          - 隐秘系统根据公共参数生成一串随机数，并将这些随机数与某个输入值进行配对。
          - 对某个消息m，公开系统将随机数r与m一起发送给隐秘系统。
          - 当隐秘系统接收到随机数r和消息m后，它可以对其进行验证，然后返回一个标记，表示验证结果是否正确。
          - 因为隐秘系统并没有获得关于m的信息，所以它只能返回验证结果而不能提供具体的m值。
         可以看到，ZKP的原理是加密的。具体的实现过程是在公开系统和隐秘系统之间建立加密通道，通道的双方只能接收到加密的消息，加密过程完全无法破译。ZKP可用于区块链场景下的证明和验证，例如，能够证明某个账户存在，但不能显示出具体的账户地址，类似于UTXO模型中的一次交易。

        ## 3.4 椭圆曲线加密算法（ECC）
         椭圆曲线加密算法（Elliptic Curve Cryptography，ECC）是一种基于椭圆曲线的公钥加密算法，具有以下优点：
          - 支持快速的计算，适用于加密计算密集型应用。
          - 更强的抗攻击性，椭圆曲线的阶级非常高，适用于加密关键的敏感数据。
          - 适用于各类应用，从移动应用程序到浏览器插件到游戏客户端，都可以使用ECC。

         ECC采用Elliptic Curves（椭圆曲线），这是一种能够有效解决离散对数问题的数学模型，并能够将椭圆曲线上的两个点相连，形成一条曲线。椭圆曲线是数论里的一类曲线，具有以下特点：
          - 拥有一个中心点P0；
          - 有一定的弦度，也就是说，曲线上任意一点与其切线之间的距离是相同的；
          - 曲线平行于坐标轴，这意味着曲线可以被看作是一个空间中的一个曲面；
          - 如果某个点P落入曲线上，则直线PP0垂足与P连线的交点也可以作为P的逆点；
          - 所有的曲线都是不同的，不存在重复的曲线。

         ECC的公私钥对由两部分组成，分别是公钥Q和私钥d。Q=dG，这里，dG是关于椭圆曲线y^2=x^3+ax+b的一个基准点，a和b是椭圆曲线的参数。而私钥d必须满足一些特定的条件，例如，要求d是一定的正整数、与点Q在同一倍数椭圆曲线上，且与其他任何私钥都不一样。

         ECC的加密过程是：将明文m转换成坐标点C=(mx,my)，其中x和y均属于椭圆曲线上的一个点，然后求点乘积c=Qx，将点乘积c发送给接收方。接收方先根据私钥d求出共享秘密点k=dP，再计算点乘积s=cm，并用k加密点s。发送方收到加密消息后，利用共享秘密点k解密，再求得C=(mx',my')，得到明文m'。

         ECC的签名过程是：首先，消息m被哈希运算得到摘要h。其次，消息m、摘要h和私钥d构成签名值s。公钥Q=dG，如果接收方知道签名值s和消息m，也能够根据已知的椭圆曲线参数、G和私钥d计算出公钥Q。由于公钥Q和私钥d都有唯一对应的关系，因此公钥Q也是唯一的，即公钥Q=dG。最终，公钥Q和签名值s一起发送给接收方，接收方可以使用公钥Q验证签名值s是否正确。

    ## 4.具体代码实例
    ### 4.1 比特币交易详解
     #### 创建钱包
      ```python
       >>> from bitcoin import *

      # 生成一个私钥
      >>> private_key = random_key()

      # 获取对应地址
      >>> public_key = privtopub(private_key)
      >>> address = pubtoaddr(public_key)
      Address: mzoXuUKgFXQLmZtB7vKHwXnsqFRMEXCXYH

      # 将私钥保存起来
      with open('wallet.txt', 'w+') as f:
           f.write("Private Key:
")
           f.write(str(private_key))
 
      ```

     #### 查询余额
      ```python
       >>> balance = getbalance(address)
       Balance: 0 BTC
      ```

     #### 转账
      ```python
       >>> to_address = "mkpWzExbEVBEMxjJR7L2ucQJDRbrAhvpGn"
       >>> amount = Decimal("0.1")
       >>> txid = send(from_addr=address, to_addr=to_address, amount=amount)

       Transaction sent! TXID: a3cfafdb5cbdd0edcfbf5cc696e9fdad7ea17bc4a76c5df4d5d4bbdc140fb7be 
      ```

     #### 查询交易详情
      ```python
       >>> rawtx = getrawtransaction(txid)
       >>> decodedtx = decoderawtransaction(rawtx)
       {
           "hex": "0100000001be7b0f14bdcdbda4d4f5d6cdf5c76ca1bd05ae9669cccfaffebcd5eabfb5cda3010000008a47304402203a1ab07764c99b6aa9ee99ba8c3fc67d9eb40f2a288cf7fb55b389dddb3b50345d00220636cf56c0d7e77d6704bcfb0b4480fa8d555314f91ec1e9db7f7c4055e4c3a26173fc0141044d79f55cbceeff10572395043b3355877cf198ce55fd88e56f1af32f275aa75bf3c3f7e19a374e2194de7e7d13647623a5d4a2309e55e6b6fcfeffffff0280969800000000001976a914a174f847d4d4d25293571dd05a2f455b6089aa4688ac92000000000000001976a9145d22fb592ce92cf0b6f38f858d478f0b162c0d0c88acd10d01",
           "txid": "a3cfafdb5cbdd0edcfbf5cc696e9fdad7ea17bc4a76c5df4d5d4bbdc140fb7be",
           "version": 1,
           "locktime": 0,
           "vin": [
               {
                   "txid": "01a35dcfaaefbdbc4bde4df5c6ce905bdbdcd0a19a3fcee96ab9b6cf9fb0d9eae",
                   "vout": 1,
                   "scriptSig": {
                       "asm": "",
                       "hex": ""
                   },
                   "sequence": 4294967295
               }
           ],
           "vout": [
               {
                   "value": 0.1,
                   "n": 0,
                   "scriptPubKey": {
                       "asm": "OP_DUP OP_HASH160 a174f847d4d4d25293571dd05a2f455b6089aa46 OP_EQUALVERIFY OP_CHECKSIG",
                       "hex": "76a914a174f847d4d4d25293571dd05a2f455b6089aa4688ac",
                       "reqSigs": 1,
                       "type": "pubkeyhash",
                       "addresses": ["mhfkYfsQuZXihnQVLYzjhnYNLctFvbUikt"]
                   }
               },
               {
                   "value": 0.0001,
                   "n": 1,
                   "scriptPubKey": {
                       "asm": "OP_DUP OP_HASH160 5d22fb592ce92cf0b6f38f858d478f0b162c0d0c OP_EQUALVERIFY OP_CHECKSIG",
                       "hex": "76a9145d22fb592ce92cf0b6f38f858d478f0b162c0d0c88ac",
                       "reqSigs": 1,
                       "type": "pubkeyhash",
                       "addresses": ["mvvgsdhhvjjoowrdscuxqerdvdnm5gtfni"]
                   }
               }
           ]
       }
       ```